:100000004AC06EC06DC06CC06BC06AC069C068C0B9
:1000100067C055C365C021C3FBC262C061C060C078
:100020005FC05EC05DC000000000380035003200D7
:100030000000000036003300300000000000000027
:1000400000000003040600000000000000000000A3
:100050000000370034003100010204081020408005
:100060000102040810200102040810200404040402
:100070000404040402020202020203030303030352
:100080001112131415160A0B0C0D0E0F00010203AA
:100090000405A903FD0611241FBECFE5D4E0DEBF91
:1000A000CDBF21E0ACE7B0E001C01D92AD34B20796
:1000B000E1F710E0A0E6B0E0E2E7F2E102C005906F
:1000C0000D92AC37B107D9F710E0CAE4D0E003C015
:1000D0002197FE01D1D6C934D107D1F7E1D3BDC8EC
:1000E0008FCFAF92BF92CF92DF92EF92FF920F939A
:1000F0001F93CF93DF936C017B018B01040F151FBE
:10010000EB015E01AE18BF08C017D10759F0699125
:10011000D601ED91FC910190F081E02DC601099589
:10012000892B79F7C501DF91CF911F910F91FF9036
:10013000EF90DF90CF90BF90AF900895FC01538D6A
:10014000448D252F30E0842F90E0821B930B5417B1
:1001500010F0CF96089501970895FC01918D828D3E
:10016000981761F0A28DAE0FBF2FB11D5D968C91D7
:10017000928D9F5F9F73928F90E008958FEF9FEF16
:100180000895FC01918D828D981731F0828DE80FD2
:10019000F11D858D90E008958FEF9FEF0895FC018C
:1001A000918D228D892F90E0805C9F4F821B910959
:1001B0008F73992708958EE890E0F1DF21E0892B75
:1001C00009F420E0822F089580E090E0892B19F057
:1001D000F2DF811115CF0895FC01A48DA80FB92F6E
:1001E000B11DA35ABF4F2C91848D90E001968F735F
:1001F0009927848FA689B7892C93A089B1898C917E
:1002000082748C93938D848D981306C00288F38931
:10021000E02D80818F7D80830895EF92FF920F9370
:100220001F93CF93DF93EC0181E0888F9B8D8C8DA2
:10023000981319C0E889F989808185FF14C09FB798
:10024000F894EE89FF896083E889F9898081827456
:1002500080839FBF81E090E0DF91CF911F910F914C
:10026000FF90EF900895F62E0B8D10E00F5F1F4F5B
:100270000F731127E02E8C8D8E110BC00FB607FC6B
:10028000FACFE889F989808185FFF5CFCE01A4DF17
:10029000F2CFEB8DEC0FFD2FF11DE35AFF4FF082F3
:1002A0009FB7F8940B8FEA89FB8980818062D0CF59
:1002B000CF93DF93EC01888D8823B1F0AA89BB89A5
:1002C000E889F9898C9185FD03C0808186FD0CC089
:1002D0000FB607FCF7CF8C9185FFF2CF808185FFA9
:1002E000EDCFCE0179DFEACFDF91CF910895843051
:1002F00041F0863049F0833051F48FB58F778FBD50
:1003000008958FB58F7DFBCF85B58F7D85BD089511
:10031000CF93DF93282F30E0F901E65CFF4F849103
:10032000F901E85AFF4FD491F901E459FF4FC49104
:10033000CC2399F08111DBDFEC2FF0E0EE0FFF1FF3
:10034000E05DFF4FA591B491EC91ED2381E090E049
:1003500009F480E0DF91CF91089580E090E0FACF3A
:100360001F93CF93DF93282F30E0F901E65CFF4F16
:100370008491F901E85AFF4FD491F901E459FF4FF4
:10038000C491CC23A1F0162F8111B1DFEC2FF0E046
:10039000EE0FFF1FEA5DFF4FA591B4918FB7F89460
:1003A000EC91111108C0D095DE23DC938FBFDF9153
:1003B000CF911F910895DE2BF8CF6D989DB1937F5B
:1003C0009DB99DB19C7F9DB9709A682F80912D0138
:1003D000C7DF80913F01909140018230910538F054
:1003E000880F991F880F991F05970197F1F70895B6
:1003F000CF93DF9390E0FC01E85AFF4F249184599A
:100400009F4FFC0184918823D1F090E0880F991FC1
:10041000FC01E25BFF4FA591B491FC01EA5DFF4F47
:10042000C591D491623071F49FB7F8943C91822FBA
:10043000809583238C93E8812E2B28839FBFDF91A7
:10044000CF9108958FB7F894EC912E2B2C938FBFFA
:10045000F6CF3FB7F89480917D0090917E00A091F7
:100460007F00B091800022B708B600FE05C02F3F84
:1004700019F00196A11DB11D3FBFBA2FA92F982FCA
:100480008827BC01CD01620F711D811D911D42E0C5
:10049000660F771F881F991F4A95D1F708958F928D
:1004A0009F92AF92BF92CF92DF92EF92FF924B0159
:1004B0005C01CFDF6B017C01CCDF6C197D098E09FB
:1004C0009F09683E734081059105B0F321E0821ACF
:1004D0009108A108B10888EEC80E83E0D81EE11C7F
:1004E000F11C81149104A104B10431F7FF90EF9045
:1004F000DF90CF90BF90AF909F908F9008958FB96D
:100500000000779BFECF8FB10895CF9380E055DF39
:1005100081EEF5DFC82F81E050DF8C2FCF91089559
:10052000CF93C82F80E049DF8C2FE9DF8FEFE7DF23
:10053000C82F81E042DF8C2FCF910895CF93DF93B6
:10054000C82FD62F80E039DF8C2F8F718062D7DFE4
:10055000C82F8D2FD4DF81E030DF8C2FDF91CF913A
:10056000089580E0DDDF81FD09C0682F626080E0D2
:10057000E5DF65E070E080E090E091CF08950F93B3
:100580001F93CF938C0186E0CBDFC82FC77D85E515
:1005900090E0A0E0B0E00230110529F4C0628BE9E0
:1005A00090E0A0E0B0E080933B0190933C01A093E9
:1005B0003D01B0933E016C2F86E0C0DF86E0B0DFE6
:1005C00091E0C81390E0892FCF911F910F9108956A
:1005D000EF92FF920F931F93CF93DF93C82F7B016E
:1005E000142F80E0EADE8C2F8F71806288DF082F65
:1005F000E701115018F0899182DFFBCF81E0DDDE49
:10060000802FDF91CF911F910F91FF90EF90089570
:100610001F920F920FB60F9211242F933F934F9377
:100620005F936F937F938F939F93AF93BF93EF935A
:10063000FF938EE890E0D0DDFF91EF91BF91AF91F5
:100640009F918F917F916F915F914F913F912F91EA
:100650000F900FBE0F901F9018951F920F920FB61C
:100660000F9211242F938F939F93EF93FF93E09119
:100670009E00F0919F008081E091A400F091A50080
:1006800082FD1BC090818091A7008F5F8F732091A6
:10069000A800821741F0E091A700F0E0E257FF4F79
:1006A000958F8093A700FF91EF919F918F912F914C
:1006B0000F900FBE0F901F9018958081F4CF1F925E
:1006C0000F920FB60F9211242F933F938F939F9306
:1006D000AF93BF938091840090918500A091860094
:1006E000B091870030917C0023E0230F2D3758F51F
:1006F0000196A11DB11D20937C00809384009093EE
:100700008500A0938600B093870080917D00909132
:100710007E00A0917F00B09180000196A11DB11DC7
:1007200080937D0090937E00A0937F00B093800023
:10073000BF91AF919F918F913F912F910F900FBEDD
:100740000F901F90189526E8230F0296A11DB11D4A
:10075000D2CF109291001092900088EE93E0A0E02A
:10076000B0E08093920090939300A0939400B09394
:1007700095008CE690E090938F0080938E0080E44B
:1007800090E090939B0080939A0029E230E03093B0
:100790009D0020939C002BE230E030939F0020933B
:1007A0009E002AE230E03093A1002093A0009093B5
:1007B000A3008093A2008CE290E09093A500809328
:1007C000A4001092A7001092A8001092A900109205
:1007D000AA00109244011092430110924601109217
:1007E0004501109248011092470161E070E090E0ED
:1007F00080E06DD40097E1F0909344018093430131
:100800001092460110924501209147013091480114
:10081000232B11F4FC011082109248011092470121
:100820006AE770E080914301909144010FD513C0B5
:100830008091430190914401009709F0BFD3109239
:100840004401109243011092480110924701109206
:1008500046011092450189E090E090932C0180932D
:100860002B018AE090E090932E0180932D0110924D
:10087000310180E2809332011092330185E0809350
:10088000390185E090E0A0E0B0E080933F019093D3
:100890004001A0934101B0934201109234010895A8
:1008A000CF93DF93CDB7DEB728970FB6F894DEBFAE
:1008B0000FBECDBF789483B7826083BF83B781605A
:1008C00083BF89B7816089BF1EBC8EB582608EBD33
:1008D0008EB581608EBD8FB581608FBD85B584601A
:1008E00085BD85B5806485BD329A319A309A379A34
:1008F0001AB8E0919E00F0919F0082E08083E09121
:100900009A00F0919B001082E0919C00F0919D0074
:100910008FEC80831092A600E091A200F091A300DA
:1009200086E88083E091A000F091A1008081806141
:100930008083E091A000F091A10080818860808395
:10094000E091A000F091A100808180688083E09117
:10095000A000F091A10080818F7D808361E082E022
:1009600047DD61E083E044DD61E084E041DD61E09A
:1009700085E03EDD61E086E03BDD62E08EE038DD73
:1009800062E08FE035DD62E080E132DD62E081E14E
:100990002FDD8EE0BDDC892B49F48091820090919F
:1009A0008300019690938300809382008FE0B0DCF7
:1009B0002091820030918300892B31F42E5F3F4FCC
:1009C000309383002093820080E1A2DC209182009A
:1009D00030918300892B31F42C5F3F4F309383009B
:1009E0002093820081E194DC209182003091830089
:1009F000892B31F4285F3F4F30938300209382008E
:100A000080918200909183001816190624F4909327
:100A100061008093600061E082E0A2DC61E084E03C
:100A20009FDC64E670E080E090E039DD60E082E029
:100A300097DC60E084E094DC61E083E091DC61E0DD
:100A400085E08EDC64E670E080E090E028DD60E028
:100A500083E086DC60E085E083DC61E086E080DCCA
:100A600061E086E07DDC60E082E07ADC60E084E0EA
:100A700077DC60E083E074DC60E085E071DC80912D
:100A80002B0190912C0120912D0130912E01821784
:100A9000930711F061E0ACDC80912D0190912E0163
:100AA00020912B0130912C012817390711F061E0BA
:100AB0009FDC1FB7F8948091810081111FC0E6E789
:100AC000F0E08491E2E6F0E09491E82FF0E0EE0FA0
:100AD000FF1FE25BFF4FA591B491EC91E92319F45C
:100AE00061E08AE03DDC61E08AE082DC6C9A6E9A2B
:100AF00061E08DE07DDC61E08BE07ADC809181005B
:100B00008F5F809381001FBF80912B0190912C01FA
:100B100020912D0130912E018217930711F060E092
:100B20001FDC81E04ADC65E070E080E090E0B7DC4B
:100B30006CE080E003DD6FE584E000DD82E090E0C2
:100B40001EDD882319F081E08093310186E0E8DC26
:100B500090E080E014DD80E030DC80E5D0DC83E7ED
:100B6000CEDC81E02ADC60E08DE1E8DC60E08CE155
:100B7000E5DC1092330160E787E0E0DC6CE485E0BF
:100B8000DDDC80E01ADC82EEBADC81E016DCBDDC64
:100B9000E8DC80E0C5DC682F6E7F80E0CFDC81EE92
:100BA000898380EF8A838B8388EE8C838D831E827A
:100BB0001F8218864091390150E0BE016F5F7F4F60
:100BC00084E391E03AD3E6E8F0E084914091390182
:100BD000BE016F5F7F4FFCDCE0E8F0E08491609144
:100BE0003201ACDC82E09CDC0CE810E0F80194916E
:100BF00061E070E001C0660F9A95EAF7682B82E029
:100C00009DDC86E08DDC682F676086E097DC90E0F5
:100C100080E0B5DC6DE485E091DCA3DC80E080DC85
:100C2000682F616080E08ADC60E787E087DC809184
:100C30002B0190912C0120912D0130912E018217D2
:100C4000930711F061E08CDB80913401882369F116
:100C50004091390164E371E08AE0BADC8DE160DC47
:100C600081FD53DC40E0E42E40E0F42E87E158DCC7
:100C700080FD48C01091320102E0123008F4012FCB
:100C800080913301101B811110E080E096DB81E63A
:100C900036DC3CE8C32E30E0D32E0150B0F08FEFAD
:100CA0002EDCF60181936F01F8CF82E039DCF80188
:100CB000049121E030E001C0220F0A95EAF7209567
:100CC000622F682382E03ADCC9CF115018F08FEF11
:100CD00016DCFBCF81E071DB60E787E02FDC2FB70C
:100CE000F8948091840090918500A0918600B09145
:100CF00087002FBF8093880090938900A0938A007B
:100D0000B0938B0080916000909161008C01000F86
:100D1000111F04970CF05EC060918C0070E0C80158
:100D2000019702C0759567958A95E2F7617082E038
:100D300017DB60918C0070E00250110902C07595BC
:100D400067950A95E2F7617083E00ADB82E0E0DAFA
:100D5000682F84E005DB83E0DBDA682F85E000DBC9
:100D60002FB7F8948091840090918500A09186001F
:100D7000B09187002FBF4091880050918900609109
:100D80008A0070918B00841B950BA60BB70B61E05A
:100D9000803D9740A105B10588F060E086E0E0DA8B
:100DA00064E670E080E090E07ADB61E086E0D8DA2B
:100DB00064E670E080E090E072DB60E086E0D0DA2C
:100DC000E114F10409F452CFF6D9882309F44ECF87
:100DD00017D94CCF60918D0070E0C801079702C011
:100DE000759567958A95E2F7617082E0B9DA60914E
:100DF0008D0070E008501109A1CF809143019091BE
:100E00004401009709F0DAC008952F923F924F9263
:100E10005F926F927F928F929F92AF92BF92CF928A
:100E2000DF92EF92FF920F931F93CF93DF93CDB793
:100E3000DEB7CA1BDB0B0FB6F894DEBF0FBECDBF0B
:100E400009942A88398848885F846E847D848C84DC
:100E50009B84AA84B984C884DF80EE80FD800C81E5
:100E60001B81AA81B981CE0FD11D0FB6F894DEBFC8
:100E70000FBECDBFED010895EE0FFF1F0590F49159
:100E8000E02D09940F931F93CF93DF938230910548
:100E900010F482E090E0E0914B01F0914C0130E0E1
:100EA00020E0B0E0A0E0309799F42115310509F475
:100EB0004AC0281B390B24303105D8F58A819B8123
:100EC0006115710589F1FB0193838283FE0111C0D5
:100ED000408151810281138148175907E0F048177A
:100EE000590799F4109761F012960C931297139684
:100EF0001C933296CF01DF91CF911F910F910895EE
:100F000000934B0110934C01F4CF2115310551F0A2
:100F10004217530738F0A901DB019A01BD01DF0137
:100F2000F801C1CFEF01F9CF90934C0180934B01B1
:100F3000CDCFFE01E20FF31F81939193225031092F
:100F400039832883D7CF2091490130914A01232B3F
:100F500041F4209164003091650030934A01209360
:100F6000490120916200309163002115310541F45F
:100F70002DB73EB74091660050916700241B350B9A
:100F8000E0914901F0914A01E217F307A0F42E1B0A
:100F90003F0B2817390778F0AC014E5F5F4F2417DD
:100FA000350748F04E0F5F1F50934A0140934901A7
:100FB000819391939FCFF0E0E0E09CCFCF93DF93BC
:100FC0000097E9F0FC01329713821282A0914B0145
:100FD000B0914C01ED0130E020E01097A1F42081A8
:100FE0003181820F931F2091490130914A012817C6
:100FF000390709F061C0F0934A01E0934901DF919C
:10100000CF910895EA01CE17DF07E8F54A815B81A9
:101010009E0141155105B1F7E901FB83EA8349912E
:101020005991C40FD51FEC17FD0761F480819181A0
:101030000296840F951FE9019983888382819381A9
:101040009B838A83F0E0E0E012968D919C91139748
:101050000097B9F52D913C911197CD010296820F21
:10106000931F2091490130914A012817390739F619
:10107000309751F510924C0110924B01B0934A01F8
:10108000A0934901BCCFD383C28340815181840F97
:10109000951FC817D90761F44E5F5F4F888199810A
:1010A000480F591F518340838A819B819383828398
:1010B0002115310509F0B0CFF0934C01E0934B01BD
:1010C0009ECFFD01DC01C0CF13821282D7CFB0E0EA
:1010D000A0E0ECE6F8E09BCE8C01009741F4CB0158
:1010E000D1DE8C01C801CDB7DEB7E0E1ACCEFC01AA
:1010F000E60FF71F9C0122503109E217F30708F4AD
:1011000099C0D901CD91DC911197C617D70790F0FE
:10111000C530D10538F3CE0104978617970710F331
:10112000C61BD70B2297C193D1936D937C93CF01AC
:1011300045DFD8CF5B01AC1ABD0A4C018C0E9D1E59
:10114000A0914B01B0914C01512C412CF12CE12C80
:10115000109731F58091490190914A0188159905C0
:1011600009F05CC04616570608F058C0809162002E
:1011700090916300009741F48DB79EB7409166004F
:1011800050916700841B950BE817F90708F052C0CF
:10119000F0934A01E0934901F90171836083A2CF82
:1011A0008D919C91119712966C90129713967C904A
:1011B0001397A815B90559F56C0142E0C40ED11C6E
:1011C000CA14DB0420F1AC014A195B09DA0112965A
:1011D000159780F06282738251834083D9016D93A9
:1011E0007C93E114F10471F0D7011396FC93EE9314
:1011F000129778CF22968C0F9D1FF90191838083DF
:10120000F301EFCFF0934C01E0934B016BCF481605
:10121000590608F42C017D01D3019ACFCB0132DEAF
:101220007C01009739F0AE01B80107D0C801C6DED5
:10123000870158CF10E000E055CFFB01DC0102C070
:1012400001900D9241505040D8F70895FB01DC0108
:1012500001900D920020E1F7089510E0CAE4D0E07B
:1012600003C0FE0109DE2196CB34D107D1F7F894F3
:02127000FFCFAE
:10127200010000004D018000000000000D0171001E
:0C1282009E005801CF00AD00C10000002C
:00000001FF
